{
  "contractName": "AdvanceStore",
  "abi": [
    {
      "inputs": [
        {
          "internalType": "uint256",
          "name": "",
          "type": "uint256"
        }
      ],
      "name": "ids",
      "outputs": [
        {
          "internalType": "uint256",
          "name": "",
          "type": "uint256"
        }
      ],
      "stateMutability": "view",
      "type": "function",
      "constant": true
    },
    {
      "inputs": [
        {
          "internalType": "uint256",
          "name": "id",
          "type": "uint256"
        }
      ],
      "name": "add",
      "outputs": [],
      "stateMutability": "nonpayable",
      "type": "function"
    },
    {
      "inputs": [
        {
          "internalType": "uint256",
          "name": "idx",
          "type": "uint256"
        }
      ],
      "name": "get",
      "outputs": [
        {
          "internalType": "uint256",
          "name": "",
          "type": "uint256"
        }
      ],
      "stateMutability": "view",
      "type": "function",
      "constant": true
    },
    {
      "inputs": [],
      "name": "getAll",
      "outputs": [
        {
          "internalType": "uint256[]",
          "name": "",
          "type": "uint256[]"
        }
      ],
      "stateMutability": "view",
      "type": "function",
      "constant": true
    },
    {
      "inputs": [],
      "name": "length",
      "outputs": [
        {
          "internalType": "uint256",
          "name": "",
          "type": "uint256"
        }
      ],
      "stateMutability": "view",
      "type": "function",
      "constant": true
    }
  ],
  "bytecode": "0x608060405234801561001057600080fd5b50610295806100206000396000f3fe608060405234801561001057600080fd5b50600436106100575760003560e01c80631003e2d21461005c5780631f7b6d321461008a57806353ed5143146100a85780639507d39a14610107578063fac333ac14610149575b600080fd5b6100886004803603602081101561007257600080fd5b810190808035906020019092919050505061018b565b005b6100926101b7565b6040518082815260200191505060405180910390f35b6100b06101c3565b6040518080602001828103825283818151815260200191508051906020019060200280838360005b838110156100f35780820151818401526020810190506100d8565b505050509050019250505060405180910390f35b6101336004803603602081101561011d57600080fd5b810190808035906020019092919050505061021b565b6040518082815260200191505060405180910390f35b6101756004803603602081101561015f57600080fd5b810190808035906020019092919050505061023b565b6040518082815260200191505060405180910390f35b600081908060018154018082558091505060019003906000526020600020016000909190919091505550565b60008080549050905090565b6060600080548060200260200160405190810160405280929190818152602001828054801561021157602002820191906000526020600020905b8154815260200190600101908083116101fd575b5050505050905090565b600080828154811061022957fe5b90600052602060002001549050919050565b6000818154811061024b57600080fd5b90600052602060002001600091509050548156fea2646970667358221220ad6f983e3e35f7ac9ddca00877d67f8035e39111532a7236dddd7f778371c59064736f6c63430007050033",
  "immutableReferences": {},
  "source": "pragma solidity ^0.7.5;\n\ncontract AdvanceStore {\n\tuint[] public ids;\n\n\tfunction add(uint id) public {\n\t\tids.push(id);\n\t}\n\n\tfunction get(uint idx) view public returns (uint) {\n\t\treturn ids[idx];\n\t}\n\n\t//for complex type you must specify memory storage location, ex uint[]\n\tfunction getAll() view public returns (uint[] memory) {\n\t\treturn ids;\n\t}\n\n\tfunction length() view public returns (uint) {\n\t\treturn ids.length;\n\t}\n}",
  "sourcePath": "/Users/edsonramirez/ChainSkills/private/adv-store-dp4/contracts/AdvanceStore.sol",
  "compiler": {
    "name": "solc",
    "version": "0.7.5+commit.eb77ed08.Emscripten.clang"
  },
  "schemaVersion": "3.3.2",
  "updatedAt": "2021-02-04T19:49:31.353Z",
  "networkType": "ethereum",
  "devdoc": {
    "kind": "dev",
    "methods": {},
    "version": 1
  },
  "userdoc": {
    "kind": "user",
    "methods": {},
    "version": 1
  }
}